:0700030053E4FD53E4FE226B
:052E36009001D2EFF055
:102E3B00E4A3F09001D2E030E70543B002800353E6
:102E4B00B0FD1230039001D2E025E0F043B0011247
:102E5B00300353B0FE1230039001D3E004F0E0C313
:0E2E6B00940840CF53B0FD7F147E0002300764
:042A0C007B007D04CA
:0E2A10009001CCEBF0A3EAF0A3E9F0A3EDF007
:102A1E00E4A3F09001CFE0FFA3E0C39F50409001EC
:102A2E00CCE0FBA3E0FAA3E0F9121038FF9001D13D
:102A3E00F0122E369001CCE0FBA3E0FAA3E0F912DF
:102A4E001038E5F0FF9001D1F0122E369001CDE452
:0E2A5E0075F0021210229001D0E004F080B555
:012A6C002247
:0E2DAC009001CCEBF0A3EAF0A3E9F0A3EDF068
:102DBA00E4A3F09001CFE0FFA3E0C39F5028900165
:102DCA00CCE0FBA3E0FAA3E0F9120F75FF9001D162
:102DDA00F0122E369001CDE475F001121022900106
:062DEA00D0E004F080CDF2
:012DF00022C0
:102E79007B017A0279D57D01122DAC7A00793B125A
:102E89002A0C7A007943122A0C7B007A00792B7D6F
:102E990004122A107B017A0179677D14122A107BAA
:102EA900017A0179E57D20122A109002D5E004F01B
:012EB90022F6
:043003007F0A7E00C2
:10300700E4FDFCC3ED9FEC9E5011000000000000A2
:0B301700000000000DBD00010C80E86F
:01302200228B
:103500001B04021D04021F040220040222040224E0
:1035100004022604022704140000002704022604E3
:10352000022404022204022004021F04021D0402D9
:103530001B04140000001B04021D04140000001DE5
:1035400004021B0414000000000000AAAAAAAABBDF
:10355000BBBBBBBBBBBBBBBBBBBBBBBBBBBBBBBBBB
:10356000BBBBBBBBBBBBBBBBBBBBBBBBBBBBBBBBAB
:10357000BBBBBBCCCCCCCCCCCCCCCCCCCCCCCCCCBE
:10358000CCCCCCCCCCCCCCCCCCCCCCCCCCCCCCCC7B
:10359000CCCCCCCCCCCCCCDD0000000000000000BA
:0A35A0000000000000000000000021
:1016AD004101060041010C004101600041010900AA
:1016BD0042010D000041010A0042010F00004101ED
:1016CD00140041010B0041010000410105004101E1
:1016DD0004004101020041018F014101130041014C
:1016ED005D004101110041011200410166004101FF
:1016FD00010042015E0000420161000042016300F1
:0A170D0000420107000041016500E1
:10308000E4FDFCC3ED9FEC9E501100000000000029
:0B309000000000000DBD00010C80E8F6
:01309B002212
:10005600E4900192F0A3F0A3F0A3F0A3F0A3F0A321
:10006600F0A3F0A3F0A3F0A3F0A3F0A3F0A3F0A3F2
:10007600F0A3F0A3F0A3F0A3F0A3F0A3F078A77C7D
:10008600017D017BFF7A357998FE7F0A120F4FE4D6
:100096009001B1F0A3F0A3F0A3F0A3F0A3F0A3F0B6
:1000A600A3F078B97C017D017BFF7A3579A2FE7FCA
:1000B60004120F4F78BD7C017D017BFF7A3579A64E
:1000C6007E007F04120F4FE49001C1F0A3F0A374E9
:1000D60008F0A3F0E4A3F0A3F0A3F0A3F0A3F0A329
:1000E600F0A3F012000A122D65122EBA1230ED128C
:1000F6002F90122ACE122FB8122F671231631200D8
:1001060003123176122C2E123062122DF17BFF7AF9
:100116003579481230D4D2AFE4900106F090010C44
:10012600F09002C7E064016003020D7DF0900106C5
:10013600E01470030205F6046003020D78121EFD3A
:100146009001B3EFF0E4900194F0122EFA9001942E
:10015600E024A7F582E43401F583EFF0900194E002
:1001660004F0E0C3940A40E29001A7E09001A6F0F3
:10017600E4900194F0900194E0FF24A8F582E43421
:1001860001F583E0FE74A72FF582E43401F583E0E0
:100196006E60089001B1E09001A6F0900194E00431
:1001A600F0E0B409D09001B3E05403FF9001A6E05B
:1001B6004FF0E4FF12299D900195E0FD1226A090D4
:1001C6000195EFF07F0112299D900196E0FD122620
:1001D600A0900196EFF07F0212299D1227609001F0
:1001E6009BEFF07F0312299D12276090019CEFF090
:1001F6009001C7E0FF04F012145A1220BE9001A32A
:10020600EFF09001C7E0B40402E4F090018FE0B48F
:100216000110900195E09001B5F0900196E09001F3
:10022600B6F0900197E0FF900195E0FE6F60369082
:10023600010CE030E02F9001A3E0602990019BE0E3
:10024600F46022900100E04401F0E490015EF0A326
:10025600F09001B5EEF0FF122F39E49002CCF0A336
:10026600F09002CBF0900198E0FF900196E0FE6FCF
:10027600603690010CE030E12F9001A3E0602990F8
:10028600019CE0F46022900100E04402F0E4900159
:1002960061F0A3F09001B6EEF0FF122F39E4900260
:1002A600CCF0A3F09002CBF09001B4E054FCFF90A8
:1002B60001B3E0FE54FC6F700302039590010CE05D
:1002C60030E0619001A3E0605B90019BE0F4605434
:1002D600EE30E21C900100E04401F0E490015EF093
:1002E600A3F09001B5E0C394375026E004F08021D6
:1002F6009001B3E030E422900100E04401F0E49084
:10030600015EF0A3F09001B5E0D3940F4003E01432
:10031600F09001B5E0FF122F39E49002CCF0A3F083
:100326009002CBF090010CE030E1649001A3E06014
:100336005E90019CE0F460579001B3E030E31C90BE
:100346000100E04402F0E4900161F0A3F09001B6F0
:10035600E0C394375026E004F080219001B3E030EA
:10036600E522900100E04402F0E4900161F0A3F080
:100376009001B6E0D3940F4003E014F09001B6E08C
:10038600FF122F39E49002CCF0A3F09002CBF0904C
:1003960001B1E0FF9001A6E0FE6F70030204D5EE06
:1003A600540370030204D59001047401F090010C0B
:1003B600E06EF0EE30E007900100E054FEF0EE3023
:1003C600E107900100E054FDF090010CE0FF5401BC
:1003D600FE900160E054016E6038EF30E034900129
:1003E600C97401F09001A3E054037BFF70107A35C5
:1003F600793F1230D490010BE04404F080147A3532
:1004060079001230D490010BE054FBF09001117486
:1004160001F090010CE0FF5402FE900160E05402EE
:100426006E603AEF30E1369001CA7401F09001A394
:10043600E054037BFF70107A35793F1230D4900177
:100446000BE04404F0807D7A3579001230D49001B7
:100456000BE054FBF09001127401F0806790010CE0
:10046600E0FF20E01320E1107BFF7A35791B123084
:10047600D4E490010BF0804C90010CE0FF5401FE97
:10048600900160E054016E6016EF20E0127BFF7A67
:1004960035791B1230D490010BE054F7F08025908B
:1004A600010CE0FF5402FE900160E054026E6014FD
:1004B600EF20E1107BFF7A35791B1230D490010BC7
:1004C600E054EFF0E49002CCF0A3F09002CBF09071
:1004D600019DE0FF90019BE0FE6F6026900105E024
:1004E6004401F0EE90010BB4FF06E04401F08004F5
:1004F600E054FEF0E490019FF0A3F090019DEEF031
:100506008007E490019FF0A3F090019EE0FF900128
:100516009CE0FE6F6026900105E04401F0EE90013C
:100526000BB4FF06E04402F08004E054FDF0E490D2
:1005360001A1F0A3F090019EEEF08007E49001A1E6
:10054600F0A3F09001A4E0FF9001A3E0FE6F6077B6
:100556009001A5E004F0E0C3940A406B9001027498
:1005660001F090010BE030E21CEE30E118A3E054FC
:100576000360127BFF7A3579001230D490010BE0CC
:1005860054FBF080399001A4E0540360319001A33C
:10059600E05403702990010BE020E222A3E054030B
:1005A600601C7BFF7A35793F1230D4E4900163F00A
:1005B600A3F090010BE04404F0E4900100F09001F8
:1005C600A3E0A3F0E4A3F09001A6E09001B1F090BF
:1005D6000195E0900197F0900196E0900198F090D7
:1005E600010CE0900160F09001067401F0020D7DAF
:1005F60090018FE060209001117401F0A3F090014A
:10060600017404F07BFF7A3579001230D4E490014E
:1006160000F090018FF090019BE0FF75F00A84FED8
:100626009001B9F0EF75F00A84AFF0A3EFF09001F6
:100636009CE0FD75F00A84FC9001BBF0ED75F00AB4
:1006460084ADF0A3EDF0900105E0B40128C390015C
:1006560008E094F4900107E0940140199001B9EE86
:10066600F0A3EFF0A3ECF0A3EDF0E4900107F0A304
:10067600F0900105F0900100E0FF30E0169001B522
:10068600E0FE75F00A849001B9F0EE75F00A84A3D5
:10069600E5F0F0EF30E1169001B6E0FF75F00A8460
:1006A6009001BBF0EF75F00A84A3E5F0F090010B22
:1006B600E0FD30E22E9001B9740EF0A37402F0A3AF
:1006C600740EF0A37402F09001A3E05403FE7008C8
:1006D6009001C1740CF08026BE01239001C1740EF6
:1006E600F0801B9001A3E05403FEBE01089001C1F7
:1006F6007406F08009BE02069001C17407F09001ED
:10070600C3E09001C27006E04408F08004E054F7AC
:10071600F09001C4E09001C27006E04402F080044B
:10072600E054FDF0ED30E00A9001B9740EF0A374C8
:1007360001F090010BE030E10A9001BB740EF0A3CA
:100746007401F090010BE0FF30E30A9001B9740EDA
:10075600F0A37405F0EF30E40A9001BB740EF0A329
:100766007405F0E4900104F0900102F0900101E0BC
:10077600701D7B017A0179B99001C1E0FDA3E0907B
:1007860001D0F090010CE09001D1F0E4A3804E90EE
:100796000101E0640170227B017A0179B99001C1FF
:1007A600E0FDA3E09001D0F090010CE09001D1F0C3
:1007B600900100E09001D28024900101E064027073
:1007C600327B017A0179B99001C1E0FDA3E0900185
:1007D600D0F090010CE09001D1F0A37404F09001E8
:1007E60011E09001D3F0900112E09001D4F0121BB9
:1007F600278012900101E0B4040B900111E0FFA3E1
:10080600E0FD122507900100E0FF30E02CC39001C7
:100816005FE0942C90015EE09401401DEF54FE9041
:100826000100F09001067401F07BFF7A35793612EB
:1008360030D4E490015EF0A3F0900100E0FF30E1D7
:100846002CC3900162E0942C900161E09401401D5C
:10085600EF54FD900100F09001067401F07BFF7AE1
:100866003579361230D4E4900161F0A3F090010B93
:10087600E030E211C3900164E094F4900163E094E7
:10088600014029801790010BE05418601FC39001A6
:1008960064E094F4900163E0940140107BFF7A35A4
:1008A600793F1230D4E4900163F0A3F090010BE09D
:1008B60020E20620E00330E31F9001C37408F0E451
:1008C600900109F090010DF0A3F09001C5F09001A0
:1008D60009E0FF7E00122CCA90010CE020E0030222
:1008E6000AB2900113E07003020A30E4F09001C3EB
:1008F600E0FF640870479001A3E0FE30E21090012B
:10090600C9E0B401099001C37401F0020A30EE3067
:10091600E20F9001C9E070099001C37404F0020A65
:10092600309001B5E0FE90019BE0C39E4003020AB1
:1009360030E49001C3F09001C9F0020A30EFB4012F
:10094600139001A3E020E2030209E09001C37402C0
:10095600F0020A309001C3E0FFB402067403F0020D
:100966000A30EF6403702A9001A3E020E203020A32
:100976002A9001C37402F09001C5E004F090359707
:10098600E493FF9001C5E0D39F5003020A30020AA8
:100996001C9001C3E0FFB40705E4F0020A30EF70D3
:1009A600229001A3E030E2069001C37404F09001A6
:1009B600B5E0FF90019BE0D39F406F9001C37408A0
:1009C600F080679001C3E0FFB404169001A3E03005
:1009D600E2089001C37405F08050E49001C3F080F2
:1009E60049EFB405089001C37406F0803D9001C339
:1009F600E0640670359001A3E030E2289001C374EC
:100A060005F09001C5E004F0903597E493FF90015E
:100A1600C5E0D39F401490010BE04408F0E4900138
:100A2600C5F080069001C37407F0E4900194F0903D
:100A36000194E0FFC394045020EF90354B93FF9050
:100A4600019BE0C39F500A900194E0900193F080CF
:100A560008900194E004F080D6900193E0FF9001A5
:100A6600C3E0FE25E025E0244FF582E43435F58326
:100A7600E5822FF582E43583F583E493FD90010941
:100A8600F0EE25E025E02473F582E43435F583E5C0
:100A9600822FF582E43583F583E49375F064A4FF31
:100AA60090010DE5F0F0A3EFF0ED803490010CE03D
:100AB60020E03390019BE0C3940A9001C3500B746D
:100AC60009F09001097432F080167408F0E4900180
:100AD60009F090010DF0A3F09001C5F0900109E036
:100AE600FF7E00122CCA90010BE020E20620E103F3
:100AF60030E41F9001C47408F0E490010AF09001FC
:100B06000FF0A3F09001C6F090010AE0FF7E0012FC
:100B16002C7C90010CE020E103020CEC90015DE0DE
:100B26007003020C6AE4F09001C4E0FF64087047A9
:100B36009001A3E0FE30E3109001CAE0B4010990F1
:100B460001C47401F0020C6AEE30E30F9001CAE0B2
:100B560070099001C47404F0020C6A9001B6E0FEBC
:100B660090019CE0C39E4003020C6AE49001C4F02D
:100B76009001CAF0020C6AEFB401139001A3E020C1
:100B8600E303020C1A9001C47402F0020C6A90018D
:100B9600C4E0FFB402067403F0020C6AEF6403704B
:100BA6002A9001A3E020E303020C649001C47402BE
:100BB600F09001C6E004F0903597E493FF9001C6EB
:100BC600E0D39F5003020C6A020C569001C4E0FF6A
:100BD600B40705E4F0020C6AEF70229001A3E0303E
:100BE600E3069001C47404F09001B6E0FF90019C06
:100BF600E0D39F406F9001C47408F080679001C4F1
:100C0600E0FFB404169001A3E030E3089001C47439
:100C160005F08050E49001C4F08049EFB4050890D7
:100C260001C47406F0803D9001C4E06406703590FE
:100C360001A3E030E3289001C47405F09001C6E0FA
:100C460004F0903597E493FF9001C6E0D39F4014DB
:100C560090010BE04410F0E49001C6F0800690018C
:100C6600C47407F0E4900194F0900194E0FFC394FB
:100C7600045020EF90354B93FF90019CE0C39F50AA
:100C86000A900194E0900193F08008900194E004AA
:100C9600F080D6900193E0FF9001C4E0FE25E025A8
:100CA600E0244FF582E43435F583E5822FF582E4BE
:100CB6003583F583E493FD90010AF0EE25E025E007
:100CC6002473F582E43435F583E5822FF582E43525
:100CD60083F583E49375F064A4FF90010FE5F0F0CB
:100CE600A3EFF0ED803490010CE020E13390019CFD
:100CF600E0C3940A9001C4500B7409F090010A7481
:100D060032F080167408F0E490010AF090010FF0BA
:100D1600A3F09001C6F090010AE0FF7E00122C7C41
:100D2600900114E0604C9001C37408F0E49001094E
:100D3600F090010DF0A3F09001C5F0900109E0FFDD
:100D46007E00122CCA9001C47408F0E490010AF0E7
:100D560090010FF0A3F09001C6F090010AE0FF7E2B
:100D660000122C7C90010CE054FCF0E4900114F08D
:100D76008000E4900106F07FE87E03123080900147
:100D860092E064326003020E65900106E0FF900176
:100D960067E4F0A3EFF090010CE0FF900169E4F046
:100DA600A3EFF09001A6E0FF90016BE4F0A3EFF053
:100DB60090019BE0FF90016DE4F0A3EFF090019CA1
:100DC600E0FF90016FE4F0A3EFF0900195E0FF9053
:100DD6000171E4F0A3EFF0900196E0FF900173E457
:100DE600F0A3EFF09001A3E0FF900175E4F0A3EF0C
:100DF600F0900109E0FF900177E4F0A3EFF0900195
:100E06000AE0FF900179E4F0A3EFF0E4A3F0A3F089
:100E1600A3F0A3F0A3F0A3F0A3F0A3F0A3F0A3F034
:100E2600900101E0FF900185E4F0A3EFF0E4A3F068
:100E3600A3F0900112E0FF900189E4F0A3EFF09097
:100E46000111E0FF90018BE4F0A3EFF0E4A3F0A31F
:100E5600F0C2AF122E79D2AFE4900192F0800690E4
:100E66000192E004F0900165E0C394015003020191
:090E760027E4F012280F02012705
:103023000000FE49000100FF00010B5F000107994A
:10303300000000000000000000000000000000008D
:10292B00E4FBEB25E025E02425F582E43401F58377
:10293B00121164000000000BEBB404E675E6187589
:10294B00CF1FE4F5C375BB1F75B3407B07EB701C42
:10295B00047E00A803088005C333CE33CED8F9FF1D
:10296B0090FB0AE0FDEF5D70031B80E1AF03740188
:10297B00A807088002C333D8FC90FB0AF090FB0B2E
:10298B007401F090FB0CF09000A0740CF0A374F7A2
:01299B00F04B
:01299C002218
:102A6D009000A4E0F5C29000A7E090FB04F0E4F51F
:102A7D00C39000A0E0F5BBA3E0F5B3E4F5AAA3E095
:102A8D00F5BEA3E0F5BF9000A5E0F5BCA3E0F5BD54
:102A9D0075E61890FB05743BF0E490FB06F090FB97
:102AAD0007F090FB08F090FB09F090FB0A740FF013
:102ABD0090FB0B74F0F090FB0CF090FB0D7401F09B
:012ACD0022E6
:1018EA0090009FE09001E4F0E49001E3F09001E3BE
:1018FA00E0FFC39404501DEF25E025E02425F5827E
:10190A00E43401F583121164000000009001E3E061
:10191A0004F080D975E61875CF1F90FB0774FFF0A5
:10192A0090FB047402F0E4F5C39000A0E0F5BBA3B9
:10193A00E0F5B39000A5E0F5BCA3E0F5BDE49001A5
:10194A00E3F09001E4E0FF9001E3E0C39F4003026B
:10195A001AA943E20443DA0475C70F75E62A43C19C
:10196A0001E5C130E1FB53C1FD75E61853E2FB53B3
:10197A00DAFB75C704900125E0FCA3E0FDA3E0FEB5
:10198A00A3E0FF90FB00E0F8A3E0F9A3E0FAA3E0EC
:10199A00FBEF2BFFEE3AFEED39FDEC38FC9001250A
:1019AA0012115843E21043DA1075C70F75E62C433B
:1019BA00C101E5C130E1FB53C1FD75E61853E2EF01
:1019CA0053DAEF75C70490012DE0FCA3E0FDA3E014
:1019DA00FEA3E0FF90FB00E0F8A3E0F9A3E0FAA37E
:1019EA00E0FBEF2BFFEE3AFEED39FDEC38FC9001FF
:1019FA002D12115843E20243DA0275C70F75E62920
:101A0A0043C101E5C130E1FB53C1FD75E61853E25C
:101A1A00FD53DAFD75C704900129E0FCA3E0FDA39C
:101A2A00E0FEA3E0FF90FB00E0F8A3E0F9A3E0FAF0
:101A3A00A3E0FBEF2BFFEE3AFEED39FDEC38FC900C
:101A4A00012912115843E20843DA0875C70F75E6EF
:101A5A002B43C101E5C130E1FB53C1FD75E61853C3
:101A6A00E2F753DAF775C704900131E0FCA3E0FD11
:101A7A00A3E0FEA3E0FF90FB00E0F8A3E0F9A3E0F7
:101A8A00FAA3E0FBEF2BFFEE3AFEED39FDEC38FC52
:101A9A009001311211589001E3E004F002194C75DB
:101AAA00E61875CF1FE49001E3F09001E3E0FFC36D
:101ABA0094045068EF25E025E02425F582E43401FA
:101ACA00F583E0FCA3E0FDA3E0FEA3E0FFEC4D4EAE
:101ADA004F60419001E3E0FF25E025E02415F582FF
:101AEA00E43401F583A3A3E0FAA3E0FBEF25E025A4
:101AFA00E02425F582E43401F583A3A3E0FEA3E004
:101B0A00C39BFFEE9AFE9001E3E025E0243BF8A692
:0C1B1A000608A6079001E3E004F0808EAE
:011B2600229C
:101D3A0078D37C017D017BFF7A3079237E007F1086
:101D4A00120F4FE49001CEF09001CEE0FB25E02582
:101D5A00E02435F582E43401F583121164000000B1
:101D6A0000EB25E02445F582E43401F583E4F0A391
:101D7A00F09001CEE0FF25E0244DF582E43401F530
:101D8A0083E4F0A3F0EF25E025E02425F582E4348E
:101D9A0001F583121164000000009001CEE004F006
:101DAA00E0B404A41218EAE49001CEF09001CEE067
:101DBA00FFC39404506AEF25E025E02435F582E458
:101DCA003401F583C083C082E0FCA3E0FDA3E0FEFA
:101DDA00A3E0FF9001CEE025E025E02425F582E48A
:101DEA003401F583E0F8A3E0F9A3E0FAA3E0FBEFFE
:101DFA002BFFEE3AFEED39FDEC38FCD082D083128F
:101E0A0011589001CEE025E0244DF582E43401F525
:101E1A0083E475F0011210229001CEE004F0808C68
:101E2A00C390014EE0940590014DE09400500302E6
:101E3A001DAEE49001CEF09001CEE0FFC3940440C1
:101E4A0003021EF6EF25E0244DF582E43401F58302
:101E5A00E0FEA3E0FBAA06E4F9F89001CEE025E053
:101E6A0025E02435F582E43401F583E0FCA3E0FDA6
:101E7A00A3E0FEA3E0FF12109F9001CF1211589029
:101E8A0001CEE0FB25E025E024D3F582E43401F518
:101E9A0083E0FCA3E0FDA3E0FEA3E0FFEB25E02541
:101EAA00E02415F582E43401F5831211589001CE2D
:101EBA00E0FF25E0242BF8E4F608F6EF25E025E01C
:101ECA002435F582E43401F5831211640000000020
:101EDA009001CEE025E0244DF582E43401F583E457
:101EEA00F0A3F09001CEE004F0021E41900097E0CA
:021EFA0004F0F2
:011EFC0022C3
:102DF100E4900094F0784FF608F67853F608F60858
:102E0100F608F6784DF608F6784BF608F612292BF7
:102E11007D017F021225D69001CCEEF0A3EFF09058
:0F2E210001CCE0FCA3E0FDEC9000A5F0A3EDF0E8
:062E3000122A6D021D3A9A
:0725D6009001CEEDF0AB0710
:1025DD00E4A3F0A3121164000000009001D4E4F014
:1025ED00A37464F0E4A3F0EBB4060AA37409F0A39A
:1025FD007495F08047EBB4020C9001D7740CF0A3E6
:10260D0074F1F08037EBB40C0C9001D7740FF0A37C
:10261D007441F08027EBB4140C9001D77411F0A322
:10262D0074A8F08017EBB4040C9001D77416F0A3C6
:10263D007462F08007E49001D7F0A3F075C20C909E
:10264D00FB04EBF0E4F5C375BB2775B310F5AAF5E4
:10265D00BEF5BFF5BC75BD6475E61890FB05743B02
:10266D00F0E490FB06F090FB07F090FB08F090FB78
:10267D0009F090FB0A740FF090FB0B74F0F090FBD7
:10268D000CF090FB0D7401F07D7114F5BC8DBDFE49
:02269D007F714B
:01269F002218
:1020BE00E49001CCF0A3F078CE7C017D017BFF7A19
:1020CE00307933FE7F10120F4FE49001CDF0900166
:1020DE00CEE0F8A3E0F9A3E0FAA3E0FB9001CDE097
:1020EE0025E02472F582E43402F583E0FEA3E0FFDE
:1020FE00E4FCFDEB2FFFEA3EFEED39FDEC38FC90E3
:10210E0001CE1211589001D2E0F8A3E0F9A3E0FA43
:10211E00A3E0FB9001CDE025E0247CF582E43402BF
:10212E00F583E0FEA3E0FFE4FCFDEB2FFFEA3EFEAD
:10213E00ED39FDEC38FC9001D21211589001D6E029
:10214E00F8A3E0F9A3E0FAA3E0FB9001CDE025E0CF
:10215E002486F582E43402F583E0FEA3E0FFE4FC7E
:10216E00FDEB2FFFEA3EFEED39FDEC38FC9001D67B
:10217E001211589001DAE0F8A3E0F9A3E0FAA3E017
:10218E00FB9001CDE025E02490F582E43402F58346
:10219E00E0FEA3E0FFE4FCFDEB2FFFEA3EFEED398F
:1021AE00FDEC38FC9001DA1211589001CDE004F0EC
:1021BE00E0640560030220DCE47B05FAF9F8900187
:1021CE00CEE0FCA3E0FDA3E0FEA3E0FF12109FE42F
:1021DE007BE87A80F9F8D31211474007E49001CCDE
:1021EE00F0802FE47B05FAF9F89001D2E0FCA3E031
:1021FE00FDA3E0FEA3E0FF12109FE47BE87A80F9D6
:10220E00F8D31211479001CC40057401F08003748D
:10221E0002F0E47B05FAF9F89001D6E0FCA3E0FDAC
:10222E00A3E0FEA3E0FF12109FE47BE87A80F9F8AA
:10223E00D312114740079001CCE04404F0E47B0533
:10224E00FAF9F89001DAE0FCA3E0FDA3E0FEA3E0CA
:10225E00FF12109FE47BE87A80F9F8D31211474001
:0D226E00079001CCE04408F09001CCE0FFA7
:01227B002240
:05145A009001CCEFF051
:10145F00E0FB25E025E02425F582E43401F5831235
:10146F0011640000000075E61875CF1F90FB07741C
:10147F00FFF090FB047402F0E4F5C39000A0E0F5D8
:10148F00BBA3E0F5B39000A5E0F5BCA3E0F5BDEB81
:10149F0014602F14604E14606D240360030215381E
:1014AF0043E20443DA0475C70F75E62A43C101E529
:1014BF00C130E1FB53C1FD75E61853E2FB53DAFB74
:1014CF00806443E20243DA0275C70F75E62943C110
:1014DF0001E5C130E1FB53C1FD75E61853E2FD5341
:1014EF00DAFD804243E21043DA1075C70F75E62C20
:1014FF0043C101E5C130E1FB53C1FD75E61853E26D
:10150F00EF53DAEF802043E20843DA0875C70F750F
:10151F00E62B43C101E5C130E1FB53C1FD75E61870
:10152F0053E2F753DAF775C7049001CCE025E025B5
:10153F00E02425F582E43401F583C083C082E0FC0A
:10154F00A3E0FDA3E0FEA3E0FF90FB00E0F8A3E023
:10155F00F9A3E0FAA3E0FBEF2BFFEE3AFEED39FD26
:10156F00EC38FCD082D08312115875E61875CF1F56
:10157F009001CCE025E025E02425F582E43401F547
:10158F0083E0FCA3E0FDA3E0FEA3E0FFEC4D4E4F94
:10159F0060419001CCE0FF25E025E02415F582E4C1
:1015AF003401F583A3A3E0FAA3E0FBEF25E025E0E8
:1015BF002425F582E43401F583A3A3E0FEA3E0C361
:1015CF009BFFEE9AFE9001CCE025E0243BF8A606A7
:1015DF0008A6079001CCE0FF75F00AA42478F582E5
:1015EF00E43402F583E0FCA3E0FDEF75F00AA424D8
:1015FF007AF582E43402F583ECF0A3EDF09001CCA0
:10160F00E0FF75F00AA42476F582E43402F583E056
:10161F00FCA3E0FDEF75F00AA42478F582E4340210
:10162F00F583ECF0A3EDF09001CCE0FF75F00AA488
:10163F002474F582E43402F583E0FCA3E0FDEF753A
:10164F00F00AA42476F582E43402F583ECF0A3EDDE
:10165F00F09001CCE0FF75F00AA42472F582E43417
:10166F0002F583E0FCA3E0FDEF75F00AA42474F506
:10167F0082E43402F583ECF0A3EDF09001CCE0FFAF
:10168F0025E0243BF8E6FC08E6FDEF75F00AA424FC
:0D169F0072F582E43402F583ECF0A3EDF067
:0116AC00221B
:101717006100000000000000000000000000000061
:1017270000000000000000000000000000000000B2
:101737000000000000000000000000000005FFFF9F
:10174700000000AA000000000000000000646464BC
:101757006464646464000000050000000000000089
:101767000000000000000000000000000000000072
:101777000000000000000000000000000492046F59
:101787000460046003E803E803E803E803E803E808
:1017970003E803E803E803E803E803E800000000C0
:1017A7000000000001FFFF000080000000000000B3
:1017B7000000000300000000000000000492046F16
:1017C7000460046003E803E803E803E803E803E8C8
:1017D70003E803E803E803E803E803E80000000080
:1017E70000000000000000A0000000000000000052
:1017F70000000000000000000000000000000000E2
:1018070000000000000000000000000000000000D1
:04181700000000FFCE
:102FDE0043E20443DA0443D20443E20243DA0243F7
:102FEE00D20243E21043DA1043D21043E20843DA2E
:052FFE000843D2082287
:10306200122FDE9000A4740CF0E4A3F0A37464F0B9
:0E307200A37402F0E49000A2F0A3F0022A6D15
:10317600E4900097F0900096F09000957480F0220D
:102C2E0090009174FFF0E4900094F090009274FF85
:102C3E00F0E4A3F0784BF608F6784FF608F608F6AF
:102C4E0008F608F608F608F608F6784DF608F6784F
:102C5E005AF6FBEB25E025E02425F582E43401F558
:0D2C6E0083121164000000000BEBB404E6BB
:012C7B002236
:102EBA0090FFFEE493FFF4FE90FFFFE493FDB50656
:102ECA000A8D8F90002F74AAF08009758F259000C3
:102EDA002F74FFF075C60E9000F4EDF0A3EFF0E446
:102EEA00F5C7F5C175CE0643F58053CEFED2AF22A3
:01000A0022D3
:102D650043850243910190FF05E493FFF4FE90FF34
:102D750004E493FDB506048D8480037584409000BA
:102D8500F2EDF0A3EFF090FF03E493FFF4FE90FF64
:102D950002E493FDB506048D9A8003759A4C900064
:072DA500F0EDF0A3EFF022B6
:10181B00C10356029A01960272039304F1067508EE
:0B182B0002097B0ACB0BE60CCD0D83FD
:1030ED0043D703E4F5CF43D601F5CF75DD6075E524
:0730FD001843DF80D2AE2270
:10299D00E49001CCF0A3F075E61FEF14600F146006
:1029AD00111460132403701475CF13801375CF1495
:1029BD00800E75CF0E800975CF0D8004E4FEFF22C9
:1029CD00E4FD43DF403003FDC203AFDEEF75F010D1
:1029DD00A4FFAEF0E5DF540FFBEF4BFF9001CDE010
:1029ED002FF09001CCE03EF00DEDB408D59001CC68
:0E29FD00E0FEA3E07803CEC313CE13D8F9FF9B
:012A0B0022A8
:03003B0002000EB2
:06000E0053DFEFD20332C4
:082760009001CCEEF0A3EFF0B4
:10276800E4A3F09001CEE0FFC3940B400302280CD1
:10277800EF25E0249AF582E43402F583E0FEA3E035
:10278800FF9001CCE0FCA3E0FDD39FEC9E506CA32E
:10279800E0F9700DC3ED94F4EC940150677BFF8071
:1027A800639001CEE0FB25E02498F582E43402F53D
:1027B80083E0FEA3E0FFC3ED9FFFEC9EFE7C007D5F
:1027C8000A120FBBEB25E02498F582E43402F58366
:1027D800E0FCA3E0FDE925E0249AF582E43402F563
:1027E80083E0FAA3E0C39DFDEA9CFC120FCD9001A3
:1027F800CEE01475F00AA42FFB80099001CEE00406
:06280800F002276BAF0394
:01280E0022A7
:0A26A0009001CCEEF0A3EFF0AB05C3
:1026AA00E4FA9001CCE0FEA3E07802C333CE33CE45
:1026BA00D8F9FF7C017D7C120FCDC374379FFFE4EC
:1026CA009EFEEBC39FE49E501A9001CDE02414FFB6
:1026DA009001CCE03400FEEF7802C333CE33CED87B
:1026EA00F980519001CCE0FEA3E07802C333CE33E7
:1026FA00CED8F9FF7C017D7C120FCDC374379FFFC2
:10270A00E49EFED3EB9FE49E401A9001CDE024ECB8
:10271A00FF9001CCE034FFFEEF7802C333CE33CE14
:10272A00D8F980109001CCE0FEA3E07802C333CE42
:10273A0033CED8F9FF7C017D7C120FCDC374379F4D
:10274A00FAEAD3940E50047A0F8008EAD3943740F9
:05275A00027A37AF0216
:01275F002257
:102BDC00CABCCDB5D08FD330D5B2D813DA52DC7095
:102BEC00DE79E054E21BE3CCE55EE6DBE848E99EE7
:102BFC00EADEEC0EED2DEE3CEF3AF01DF10EF1E4B9
:102C0C00F2AFF36FF424F4CEF56FF606F696F71DDB
:102C1C00F79DF815F887F8F2F958F9B7FA12FA6730
:022C2C00FAB8F4
:0B1836004602B300050A000000C100DC
:102F9000C297C2A153E27F53E3FD53DA7F53DBFDB7
:102FA00043B720E4F5C9438E10F5C8F5CBF5CAF553
:082FB000CDF5CCD2ADD2CA224E
:03002B0002319609
:0F319600C2CF300005C297C20032D297D20032AA
:1030D400D2CA9002B9EBF0A3EAF0A3E9F0E4A3F0BA
:0930E4009002B2F0C201C2A12267
:102F390020022AEF24F19002B3F0A37403F0A374E2
:102F49000AF0D2CA9002B97401F0A37402F0A37412
:0E2F5900B3F0E4A3F09002B2F0C201C2A122D4
:10280F009002B2E0D394014004E014F0229002BC95
:10281F00E075F003A4FF9002B9E0FBA3E0FAA3E098
:10282F002FF9EA35F0FA900001120F8EFF60563043
:10283F000115C201C2A1900002120F8E9002B2F0D8
:10284F009002BCE004F022D201D2A1D2029002B2D7
:10285F00EFF09002B9E0FBA3E0FAA3E0F9A3E07573
:10286F00F003A4F58285F083120F8E25E024DCF5AA
:10287F0082E4342BF583E493FC740193FDECF5CBE8
:10288F008DCAD2CA22C202C201C2A1C2CAC2972233
:103186000000000000000000000000000000000039
:1018410060200251183C0018282C203C30183034FC
:101851003834101C383C301C00000000000000002F
:101861003824000050022E0000000400080010007F
:101871002008001000383C50023E0000000400081F
:0A1881000010002008001000383F9E
:102ACE00E49001CCF053D99F53DAFE53E19F53E2C9
:102ADE00FE43D52012313D1231171230A5E4FF12FC
:102AEE002D1812313D1231171230A5E4FDFCFF12E4
:102AFE002B8DE4FDFC7F01122B8DE4FDFC7F021279
:102B0E002B8DE4FDFC7F03122B8D12313D123117FC
:102B1E001230A57F8F122D1812313D12311702304F
:012B2E00A501
:052D18009001E1EFF065
:102D1D001231171230A512312AE49001E2F012316E
:102D2D00049001E2E0FF74017E00A807088005C34E
:102D3D0033CE33CED8F9FF9001E1E0FDEF5D6005B4
:102D4D001230A580031231501231179001E2E004C8
:072D5D00F0E0C3940840C739
:012D6400224C
:072B8600E0FCA3E0FD7F016C
:0B2B8D009001DEEFF0A3ECF0A3EDF0F0
:102B980053E1DF12312A7F44122D1812313D1231D0
:102BA8002A9001DEE025E044C0FF122D189001DFD5
:102BB800A3E0FF122D1812313D12312A9001DEE0F8
:102BC80025E00444C0FF122D189001DFE0FF122D0C
:042BD8001802313D71
:102B2F00E49001CEF09001CDF01231043085189071
:102B3F0001CEE0FF9001CDE0FE7401A806088002EF
:102B4F00C333D8FC4F80179001CEE0FF9001CDE04A
:102B5F00FE7401A806088002C333D8FCF45F90010D
:102B6F00CEF01231179001CDE004F0E0C39408408D
:062B7F00B89001CEE0FF5A
:012B8500222D
:102EFA00E49001CCF0F0F053A1FD53E1DF12311759
:102F0A001230A512312A7F42122D1843E120122BCA
:102F1A002F9001CCEFF012313D43A1029001CCE099
:0E2F2A00FF131313541FFEEFC3134E5403FF87
:012F38002276
:10310400C286E4900271F000900271E004F0E0B431
:0331140003F5229E
:10311700D286E4900271F000900271E004F0E0B40E
:0331270003F5228B
:10312A00C290E4900271F000900271E004F0E0B401
:03313A0003F52278
:10313D00D290E4900271F000900271E004F0E0B4DE
:03314D0003F52265
:10315000C285E4900271F000900271E004F0E0B4E6
:0331600003F52252
:09309C0053A1FD12313D12311760
:1030A500D285E4900271F000900271E004F0E0B482
:0330B50003F522FE
:0E1B27009001CCEBF0A3EAF0A3E9F0A3EDF0FF
:101B350078D57C017D017BFF7A3179867E007F082F
:101B4500120F4FE49001DDF0F09001DDE0FFC3944A
:101B5500044003021BE69001CCE0FBA3E0FAA3E0FE
:101B6500F99001DDE0FEF582758300120F8E25E008
:101B75002451F582E43402F583E0FCA3E0FDEE2573
:101B8500E024D5F582E43401F583ECF0A3EDF0749F
:101B9500017E00A807088005C333CE33CED8F9FFF0
:101BA5009001CFE0FDEF5D60139001DDE025E024BD
:101BB500D6F582E43401F583E04402F09001D0E0EB
:101BC500FDEF5D60139001DDE025E024D6F582E4AC
:101BD5003401F583E04401F09001DDE004F0021BDF
:101BE5004E9001D2E0F930E2129001D7E0F0A3E087
:101BF50054FDF0A3E0F0A3E054FDF09001D3E0FE26
:101C0500D3940040419001D1E030E0509001D6E0FE
:101C15005403FDEE25E0242EF582E43402F583E03D
:101C2500FAA3E0FBEAFFEB4D9001D5CFF0A3EFF06F
:101C35009001D8E05403FFEAFEEB4FFF9001D7EE89
:101C4500F0A3EFF08016E930E012E49001D5F0A39F
:101C5500E05403F0E4A3F0A3E05403F09001D4E0D2
:101C6500FFD3940040419001D1E030E1539001DA77
:101C7500E05403FBEF25E0242EF582E43402F583DE
:101C8500E0FCA3E0FDECFFED4B9001D9CFF0A3EF15
:101C9500F09001DCE05403FFECFEED4FFF9001DB1B
:101CA500EEF0A3EFF080199001D2E030E112E4905C
:101CB50001D9F0A3E05403F0E4A3F0A3E05403F04A
:101CC5009001D1E0FF70149001D5F0A3F0A3F0A32B
:101CD500F0A3F0A3F0A3F0A3F08023EFB40106E492
:101CE5009001D9800B9001D1E0B40212E49001D5A6
:101CF500F0A3E05403F0E4A3F0A3E05403F01230A2
:101D05009C9001D5E0FCA3E0FDE4FF122B8D900132
:101D1500D7122B869001D9E0FCA3E0FD7F02122BA0
:101D25008D9001DBE0FCA3E0FD7F03122B8D1230CB
:041D35009F43A10225
:011D39002287
:082507009001CCEFF0A3EDF010
:10250F0078CE7C017D017BFF7A31798E7E007F084A
:10251F00120F4FE49001D6F09001CFE05403FF90DB
:10252F0001CCE025E0243EF582E43402F583E0FCA3
:10253F00A3E0FDECFEED4FFF9001CEEEF0A3EFF028
:10254F009001D1E05403FFECFEED4FFF9001D0EE70
:10255F00F0A3EFF09001D3E05403FF9001CDE025FD
:10256F00E0243EF582E43402F583E0FCA3E0FDECC9
:10257F00FEED4FFF9001D2EEF0A3EFF09001D5E00A
:10258F005403FFECFEED4FFF9001D4EEF0A3EFF0FC
:10259F0012309C9001CEE0FCA3E0FDE4FF122B8DE6
:1025AF009001D0122B869001D2E0FCA3E0FD7F02B8
:1025BF00122B8D9001D4E0FCA3E0FD7F03122B8D35
:0625CF0012309F43A1023F
:0125D50022E3
:10188B004102C8004102BD004102BE004202BF003E
:10189B00004202C100004202C300004202C5000028
:0618AB00C1044102C70068
:1030B800E4FDFCC3ED9FEC9E5011000000000000F1
:0B30C800000000000DBD00010C80E8BE
:0130D30022DA
:102FB80053D9E753E1E753D5E743D118C283C28415
:102FC80043E40843DC0843D40843A1025391DF4398
:062FD800B20243BA082218
:102C7C00AD07AC06ED7807C333CE33CED8F9FF7C65
:102C8C00007D64120FCDAC06AD07ED7803CEC313F7
:102C9C00CE13D8F9FF9002BFE4F0A3EFF07C0090C4
:102CAC0002BFE0FEA3E07803C333CE33CED8F9FFE6
:0E2CBC00C3ED9FFFEC9E9002C1F0A3EFF0224B
:102CCA00AD07AC06ED7807C333CE33CED8F9FF7C17
:102CDA00007D64120FCDAC06AD07ED7803CEC313A9
:102CEA00CE13D8F9FF9002C3E4F0A3EFF07C009072
:102CFA0002C3E0FEA3E07803C333CE33CED8F9FF94
:0E2D0A00C3ED9FFFEC9E9002C5F0A3EFF022F8
:03004B0002241478
:10241400C0E0C083C082C0D075D000C001C002C07B
:0924240003C004C005C006C00796
:10242D00E4FB53A1FD5391DF9002C7E0600302244A
:10243D00EDE5BA30E30530B30F800620B30A900204
:10244D00C77401F0A3E004F09002C7E064016003DB
:10245D000224E2A3E0F9540FFAFF9002C3E0FCA3BB
:10246D00E0FDD39FEC94004002801CEA7E00B50590
:10247D001AEEB50416E9C4540FFF9002C5E0FCA393
:10248D00E0C39FEC9E4004EB4408FBE9540FFAFFB8
:10249D009002BFE0FCA3E0FDD39FEC9400400280CE
:1024AD001CEA7E00B5051AEEB50416E9C4540FFFFB
:1024BD009002C1E0FCA3E0C39FEC9E4004EB4410EE
:1024CD00FBEB42807F0A7E001230B8EBF452806342
:1024DD00BA0863B2029002C8E0C394804002E4F0EF
:0324ED0043A10206
:1024F000D007D006D005D004D003D002D001D0D070
:07250000D082D083D0E0324D
:1018B1004102250041022D0041022800420226007A
:0118C1000026
:102F6700D2B443E41043DC1043D41043A10453917B
:102F7700BF43B20453BAEF438910538EF7C28FE4AD
:092F8700F58DF58BC28ED2AB2250
:03001B000230436D
:10304300C0E0C083C082900225E4F0900228F053D0
:0F305300BAEFF58DF58BC28ED082D083D0E032EC
:0300530002227C0A
:10227C00C0E0C0F0C083C082C0D075D000C000C028
:0D228C0001C002C003C004C005C006C007A9
:10229900900190E4F0A3F0C28E5391BFAF8DEFFF90
:1022A900AD8BED900190CFF0A3EFF0900225E07097
:1022B9004AE5BA30E437900190E0FEA3E0FFE4FC80
:1022C900FD7BB87A88F9F8C3121131501B9001903F
:1022D900E0FEA3E0FFE4FCFD7B887A90F81211315F
:1022E90040069002257401F053BAEF800343BA10F7
:1022F900758D00758B00D28E0223F9900225E0FFBF
:102309006401704B900190E0FCA3E0FDC39474EC70
:1023190094405005D28E0223F9D3ED9474EC944085
:102329004018ED9444EC944850109002257402F042
:10233900900228E4F043BA10800C900225E4F09052
:102349000228F053BAEFF58DF58BD28E0223F9EFFF
:10235900640260030223F9E5BA30E447C3900191AE
:10236900E094DC900190E094055033900228E094C9
:1023790000402BE014F0E025E024E5F582E4340187
:10238900F583E0FEA3E0FF900191E02FF09001902A
:10239900E03EF0E0FCA3E0FDECF58DEDF58B53BAE2
:1023A900EF8025900190E0FEA3E0FF900228E02550
:1023B900E024E5F582E43401F583EEF0A3EFF09033
:1023C9000228E004F043BA10758D00758B00D28E97
:1023D900900228E0C394204017900225E4F090026F
:1023E90028F053BAEFF58DF58BC28E90022D04F0CB
:1023F900D007D006D005D004D003D002D001D00038
:0B240900D0D0D082D083D0F0D0E032E1
:101EFD00E4FE9001D0F090022DE07003022093E4F7
:101F0D00F0E4FFEE33333354F82F25E024E5F5826A
:101F1D00E43401F583E0FCA3E0FDD394DCEC9405FF
:101F2D004027ED94C4EC9409501F74CC2EF582E437
:101F3D003401F583C083C082E0FD7401A8070880D9
:101F4D0002C333D8FCF45D8061EE33333354F82F84
:101F5D0025E024E5F582E43401F583E0FCA3E0FD02
:101F6D00D3947CEC94154026ED944CEC941D501EAE
:101F7D0074CC2EF582E43401F583C083C082E0FD7C
:101F8D007401A807088002C333D8FC4D801C74CCA3
:101F9D002EF582E43401F583C083C082E0FD740127
:101FAD00A807088002C333D8FC4DD082D083F00F30
:101FBD00EF64086003021F100EEE64046003021F3D
:101FCD000E9001CCE0FF900229F09001CDE0FE9043
:101FDD00022AF09001CEE0FD90022BF09001CFE0AF
:101FED00FC90022CF0EF6402706BEE64F97066ECFD
:101FFD00FFED2FFFE433FEEFF44E700280219001D0
:10200D00CEE0FF64016018EF64036013EF640760B6
:10201D000EEF64096009EF640C6004EFB40E0A90D2
:10202D0001CEE09001D0F0802C9001CFE0FF64FE56
:10203D006018EF64FC6013EF64F8600EEF64F660F7
:10204D0009EF64F36004EFB4F10B9001CFE0FFC32F
:10205D0074FF9FA3F09001D0E024FD601D24FC606F
:10206D001324FE601824FD600E24FE6013240D70F1
:10207D00127F01227F04227F10227F02227F0822FD
:10208D007F20227F0022AF8DAE8BEEFFE4FCFDFEA4
:10209D007B887A90F9F8C31211315012E490022521
:1020AD00F0900228F053BAEFF58DF58BC28E7F00BC
:0120BD002200
:1018C2004202CC00004102CB004102D3004102D4CB
:1018D200004102D2004102C9004102CA004202CEC6
:0718E20000004202D00000EB
:10316300438901538EFBC28D758C63758ABFD2A9C7
:03317300D28C22D9
:03000B000211954A
:10119500C0E0C0F0C083C082C0D075D000C000C020
:1011A50001C002C003C004C005C006C007758C633A
:1011B500758ABF90010CE0540360469002CDE004AF
:1011C500F070069002CCE004F09002CCE0FEA3E0C3
:1011D500FFE4FCFD7B607AEAF9F8D3121131500B7C
:1011E5009002CBE004F0A3E4F0A3F09002CBE0C3BF
:1011F500945A40189001147401F09002CBE4F080E9
:101205000B9002CCE4F0A3F09002CBF0900165E0E6
:1012150004F0900108E004F07006900107E004F086
:1012250090010CE0FF30E02D90010DE0FCA3E0FD06
:10123500C39002CFE09D9002CEE09C400890011340
:101245007401F080109002CFE004F0700F9002CE90
:10125500E004F080079002CEE4F0A3F0EF30E12D3A
:1012650090010FE0FEA3E0FFC39002D1E09F900242
:10127500D0E09E400890015D7401F080109002D18D
:10128500E004F0700F9002D0E004F080079002D0E7
:10129500E4F0A3F0900101E0FF6404600302133859
:1012A500900111E0FED3940040359002C9E004F0AE
:1012B500EEB40708E0C39428401680099002C9E0FF
:1012C500C39417400B900111E004F09002C9E4F0BB
:1012D500900111E0C394084006E4F09002C9F09033
:1012E5000112E0FED39400500302143F9002CAE0BD
:1012F50004F0EEB40708E0C3942840168009900274
:10130500CAE0C39417400B900112E004F09002CAA2
:10131500E4F0900112E0C39408500302143FE4F096
:101325009002CAF0EF6404600302143F900101F0DB
:1013350002143F900111E0D39400402C9002C9E0C3
:1013450004F0E09417401290010CE030E0069001A3
:1013550011E004F09002C9E4F0900111E0C3940893
:101365004006E4F09002C9F0900112E0D3940040E9
:101375002C9002CAE004F0E09417401290010CE0B2
:1013850030E106900112E004F09002CAE4F0900109
:1013950012E0C394084006E4F09002CAF090010BF5
:1013A500E020E20454186039900164E004F070060E
:1013B500900163E004F090010BE030E2789002D4F4
:1013C500E004F0E0FFC3943240069001017402F09E
:1013D500EFC394644064900101E4F09002D4F0807E
:1013E50059900100E0FF5403604BEF30E00E90018F
:1013F5005FE004F0700690015EE004F0900100E00B
:1014050030E10E900162E004F07006900161E004A5
:10141500F09002D3E004F0E0FFC39414400690017D
:10142500017401F0EFC394284010900101E4F0909D
:1014350002D3F08005900101E4F0D007D006D00575
:10144500D004D003D002D001D000D0D0D082D08338
:05145500D0F0D0E032F0
:0300000002289F34
:0C289F00787FE4F6D8FD7581610228E620
:100E7F00E709F608DFFA8046E709F208DFFA803E55
:100E8F0088828C83E709F0A3DFFA8032E309F60842
:100E9F00DFFA8078E309F208DFFA807088828C83AA
:100EAF00E309F0A3DFFA806489828A83E0A3F6085E
:100EBF00DFFA805889828A83E0A3F208DFFA804C38
:100ECF0080D280FA80C680D4806980F2803380100F
:100EDF0080A680EA809A80A880DA80E280CA803378
:100EEF0089828A83ECFAE493A3C8C582C8CCC583F0
:100EFF00CCF0A3C8C582C8CCC583CCDFE9DEE780C0
:100F0F000D89828A83E493A3F608DFF9ECFAA9F03E
:100F1F00EDFB2289828A83ECFAE0A3C8C582C8CC94
:100F2F00C583CCF0A3C8C582C8CCC583CCDFEADEAD
:100F3F00E880DB89828A83E493A3F208DFF980CC0F
:100F4F0088F0EF60010E4E60C388F0ED2402B40408
:100F5F000050B9F582EB2402B4040050AF232345AF
:060F6F008223900ECF73F7
:100F7500BB010689828A83E0225002E722BBFE027A
:090F8500E32289828A83E49322AD
:100F8E00BB010CE58229F582E5833AF583E0225018
:100F9E0006E92582F8E622BBFE06E92582F8E22262
:0D0FAE00E58229F582E5833AF583E493227C
:100FBB00EF8DF0A4A8F0CF8CF0A428CE8DF0A42E4A
:020FCB00FE2204
:100FCD00BC000BBE0029EF8DF084FFADF022E4CC08
:100FDD00F875F008EF2FFFEE33FEEC33FCEE9DECD1
:100FED00984005FCEE9DFE0FD5F0E9E4CEFD22ED17
:100FFD00F8F5F0EE8420D21CFEADF075F008EF2F61
:10100D00FFED33FD4007985006D5F0F222C398FD51
:05101D000FD5F0EA22EE
:10102200C5F0F8A3E028F0C5F0F8E5821582700259
:061032001583E038F022F6
:10103800BB010A89828A83E0F5F0A3E02250068783
:10104800F009E71922BBFE07E3F5F009E319228945
:0B105800828A83E493F5F07401932278
:1010630075F008758200EF2FFFEE33FECD33CDCC44
:1010730033CCC58233C5829BED9AEC99E5829840C7
:101083000CF582EE9BFEED9AFDEC99FC0FD5F0D6A4
:10109300E4CEFBE4CDFAE4CCF9A88222B800C1B9CE
:1010A3000059BA002DEC8BF084CFCECDFCE5F0CB0C
:1010B300F97818EF2FFFEE33FEED33FDEC33FCEB45
:1010C30033FB10D703994004EB99FB0FD8E5E4F900
:1010D300FA227818EF2FFFEE33FEED33FDEC33FCED
:1010E300C933C910D7059BE99A4007EC9BFCE99AE1
:1010F300F90FD8E0E4C9FAE4CCFB2275F010EF2F26
:10110300FFEE33FEED33FDCC33CCC833C810D70725
:101113009BEC9AE899400AED9BFDEC9AFCE899F860
:0E1123000FD5F0DAE4CDFBE4CCFAE4C8F922F3
:10113100EB9FF5F0EA9E42F0E99D42F0EC6480C835
:0611410064809845F022D5
:10114700EB9FF5F0EA9E42F0E99D42F0E89C45F0FE
:011157002275
:0C115800ECF0A3EDF0A3EEF0A3EFF0220A
:10116400A8828583F0D083D08212117B12117B1266
:10117400117B12117BE473E493A3C583C5F0C5838B
:10118400C8C582C8F0A3C583C5F0C583C8C582C8D5
:011194002238
:1028AB00020056E493A3F8E493A34003F68001F2ED
:1028BB0008DFF48029E493A3F85407240CC8C3332E
:1028CB00C4540F4420C8834004F456800146F6DFFD
:1028DB00E4800B01020408102040809016ADE47ECA
:1028EB00019360BCA3FF543F30E509541FFEE493F2
:1028FB00A360010ECF54C025E060A840B8E493A3B9
:10290B00FAE493A3F8E493A3C8C582C8CAC583CAE3
:10291B00F0A3C8C582C8CAC583CADFE9DEE780BE9B
:0118E90000FE
:00000001FF
